{
  "_format": "hh-sol-artifact-1",
  "contractName": "Voting",
  "sourceName": "contracts/Voting.sol",
  "abi": [
    {
      "inputs": [],
      "stateMutability": "nonpayable",
      "type": "constructor"
    },
    {
      "inputs": [],
      "name": "AlreadyVoted",
      "type": "error"
    },
    {
      "inputs": [],
      "name": "CandidateIndexOutOfBounds",
      "type": "error"
    },
    {
      "inputs": [],
      "name": "DuplicateCandidate",
      "type": "error"
    },
    {
      "inputs": [],
      "name": "EmptyName",
      "type": "error"
    },
    {
      "inputs": [],
      "name": "NoCandidates",
      "type": "error"
    },
    {
      "inputs": [],
      "name": "NoVotesCast",
      "type": "error"
    },
    {
      "inputs": [],
      "name": "Reentrant",
      "type": "error"
    },
    {
      "inputs": [],
      "name": "Unauthorized",
      "type": "error"
    },
    {
      "inputs": [],
      "name": "VotingHasEnded",
      "type": "error"
    },
    {
      "inputs": [],
      "name": "VotingHasNotStarted",
      "type": "error"
    },
    {
      "inputs": [],
      "name": "VotingInProgress",
      "type": "error"
    },
    {
      "inputs": [],
      "name": "VotingNotStarted",
      "type": "error"
    },
    {
      "anonymous": false,
      "inputs": [
        {
          "indexed": true,
          "internalType": "uint256",
          "name": "index",
          "type": "uint256"
        },
        {
          "indexed": false,
          "internalType": "string",
          "name": "name",
          "type": "string"
        }
      ],
      "name": "CandidateAdded",
      "type": "event"
    },
    {
      "anonymous": false,
      "inputs": [
        {
          "indexed": true,
          "internalType": "address",
          "name": "voter",
          "type": "address"
        },
        {
          "indexed": true,
          "internalType": "uint256",
          "name": "candidateIndex",
          "type": "uint256"
        }
      ],
      "name": "VoteCast",
      "type": "event"
    },
    {
      "anonymous": false,
      "inputs": [
        {
          "indexed": false,
          "internalType": "enum Voting.VotingState",
          "name": "previousState",
          "type": "uint8"
        },
        {
          "indexed": false,
          "internalType": "enum Voting.VotingState",
          "name": "newState",
          "type": "uint8"
        }
      ],
      "name": "VotingStateChanged",
      "type": "event"
    },
    {
      "anonymous": false,
      "inputs": [
        {
          "indexed": false,
          "internalType": "uint256[]",
          "name": "winnerIndexes",
          "type": "uint256[]"
        },
        {
          "indexed": false,
          "internalType": "uint256",
          "name": "votes",
          "type": "uint256"
        }
      ],
      "name": "WinnersFinalized",
      "type": "event"
    },
    {
      "inputs": [
        {
          "internalType": "string",
          "name": "name",
          "type": "string"
        }
      ],
      "name": "addCandidate",
      "outputs": [],
      "stateMutability": "nonpayable",
      "type": "function"
    },
    {
      "inputs": [],
      "name": "endVoting",
      "outputs": [],
      "stateMutability": "nonpayable",
      "type": "function"
    },
    {
      "inputs": [
        {
          "internalType": "uint256",
          "name": "index",
          "type": "uint256"
        }
      ],
      "name": "getCandidate",
      "outputs": [
        {
          "internalType": "string",
          "name": "",
          "type": "string"
        },
        {
          "internalType": "uint256",
          "name": "",
          "type": "uint256"
        }
      ],
      "stateMutability": "view",
      "type": "function"
    },
    {
      "inputs": [],
      "name": "getCandidates",
      "outputs": [
        {
          "components": [
            {
              "internalType": "string",
              "name": "name",
              "type": "string"
            },
            {
              "internalType": "uint256",
              "name": "voteCount",
              "type": "uint256"
            }
          ],
          "internalType": "struct Voting.Candidate[]",
          "name": "",
          "type": "tuple[]"
        }
      ],
      "stateMutability": "view",
      "type": "function"
    },
    {
      "inputs": [],
      "name": "getWinners",
      "outputs": [
        {
          "internalType": "uint256[]",
          "name": "winnerIndexes",
          "type": "uint256[]"
        },
        {
          "internalType": "uint256",
          "name": "voteCount",
          "type": "uint256"
        }
      ],
      "stateMutability": "view",
      "type": "function"
    },
    {
      "inputs": [
        {
          "internalType": "address",
          "name": "user",
          "type": "address"
        }
      ],
      "name": "hasVoted",
      "outputs": [
        {
          "internalType": "bool",
          "name": "",
          "type": "bool"
        }
      ],
      "stateMutability": "view",
      "type": "function"
    },
    {
      "inputs": [],
      "name": "owner",
      "outputs": [
        {
          "internalType": "address",
          "name": "",
          "type": "address"
        }
      ],
      "stateMutability": "view",
      "type": "function"
    },
    {
      "inputs": [],
      "name": "startVoting",
      "outputs": [],
      "stateMutability": "nonpayable",
      "type": "function"
    },
    {
      "inputs": [],
      "name": "totalCandidates",
      "outputs": [
        {
          "internalType": "uint256",
          "name": "",
          "type": "uint256"
        }
      ],
      "stateMutability": "view",
      "type": "function"
    },
    {
      "inputs": [
        {
          "internalType": "uint256",
          "name": "candidateIndex",
          "type": "uint256"
        }
      ],
      "name": "vote",
      "outputs": [],
      "stateMutability": "nonpayable",
      "type": "function"
    },
    {
      "inputs": [],
      "name": "votingState",
      "outputs": [
        {
          "internalType": "enum Voting.VotingState",
          "name": "",
          "type": "uint8"
        }
      ],
      "stateMutability": "view",
      "type": "function"
    }
  ],
  "bytecode": "0x60a0604052348015600f57600080fd5b503360808190526003805461ffff19166101001790556113336100526000396000818161016f0152818161052d015281816107980152610a3b01526113336000f3fe608060405234801561001057600080fd5b50600436106100a95760003560e01c80633866965c116100715780633866965c14610146578063462e91ec146101575780638da5cb5b1461016a578063b62312bf146101a9578063c3403ddf146101c3578063df15c37e146101cb57600080fd5b80630121b93f146100ae57806306a49fce146100c357806309eef43e146100e15780631ec6b60a1461011d57806335b8e82014610125575b600080fd5b6100c16100bc366004610e9a565b6101e1565b005b6100cb6103ba565b6040516100d89190610ef9565b60405180910390f35b61010d6100ef366004610f72565b6001600160a01b031660009081526001602052604090205460ff1690565b60405190151581526020016100d8565b6100c1610522565b610138610133366004610e9a565b6106a3565b6040516100d8929190610fa2565b6000546040519081526020016100d8565b6100c1610165366004610fc4565b61078d565b6101917f000000000000000000000000000000000000000000000000000000000000000081565b6040516001600160a01b0390911681526020016100d8565b6003546101b69060ff1681565b6040516100d89190611070565b6100c1610a30565b6101d3610c13565b6040516100d8929190611084565b60018060035460ff1660028111156101fb576101fb611038565b146102a557600060035460ff16600281111561021957610219611038565b03610237576040516345c7662360e11b815260040160405180910390fd5b600160035460ff16600281111561025057610250611038565b0361026e57604051631182db3560e01b815260040160405180910390fd5b600260035460ff16600281111561028757610287611038565b036102a55760405163702b793360e01b815260040160405180910390fd5b60035460011961010090910460ff16016102d25760405163769dd35360e11b815260040160405180910390fd5b6003805461ff001916610200179055600054821061030357604051631c80910360e21b815260040160405180910390fd5b3360009081526001602052604090205460ff161561033457604051637c9a1cf960e01b815260040160405180910390fd5b3360009081526001602081905260408220805460ff19169091179055805483908110610362576103626110d1565b6000918252602082206001600290920201810180549091019055604051839133917fa36cc2bebb74db33e9f88110a07ef56e1b31b24b4c4f51b54b1664266e29f45b9190a350506003805461ff001916610100179055565b600080546060918167ffffffffffffffff8111156103da576103da6110e7565b60405190808252806020026020018201604052801561042057816020015b6040805180820190915260608152600060208201528152602001906001900390816103f85790505b50905060005b8281101561051b5760008181548110610441576104416110d1565b906000526020600020906002020160405180604001604052908160008201805461046a906110fd565b80601f0160208091040260200160405190810160405280929190818152602001828054610496906110fd565b80156104e35780601f106104b8576101008083540402835291602001916104e3565b820191906000526020600020905b8154815290600101906020018083116104c657829003601f168201915b50505050508152602001600182015481525050828281518110610508576105086110d1565b6020908102919091010152600101610426565b5092915050565b336001600160a01b037f0000000000000000000000000000000000000000000000000000000000000000161461056a576040516282b42960e81b815260040160405180910390fd5b60008060035460ff16600281111561058457610584611038565b1461062e57600060035460ff1660028111156105a2576105a2611038565b036105c0576040516345c7662360e11b815260040160405180910390fd5b600160035460ff1660028111156105d9576105d9611038565b036105f757604051631182db3560e01b815260040160405180910390fd5b600260035460ff16600281111561061057610610611038565b0361062e5760405163702b793360e01b815260040160405180910390fd5b60008054900361065157604051633941064160e21b815260040160405180910390fd5b60038054600160ff198216811790925560405160ff909116917f34359fa46e093fd12cfbc62b69fefa4a903105d7c42458bbef6760d3864a71ff91610697918491611137565b60405180910390a15050565b600080546060919083106106ca57604051631c80910360e21b815260040160405180910390fd5b60008084815481106106de576106de6110d1565b90600052602060002090600202019050806000018160010154818054610703906110fd565b80601f016020809104026020016040519081016040528092919081815260200182805461072f906110fd565b801561077c5780601f106107515761010080835404028352916020019161077c565b820191906000526020600020905b81548152906001019060200180831161075f57829003601f168201915b505050505091509250925050915091565b336001600160a01b037f000000000000000000000000000000000000000000000000000000000000000016146107d5576040516282b42960e81b815260040160405180910390fd5b60008060035460ff1660028111156107ef576107ef611038565b1461089957600060035460ff16600281111561080d5761080d611038565b0361082b576040516345c7662360e11b815260040160405180910390fd5b600160035460ff16600281111561084457610844611038565b0361086257604051631182db3560e01b815260040160405180910390fd5b600260035460ff16600281111561087b5761087b611038565b036108995760405163702b793360e01b815260040160405180910390fd5b60035460011961010090910460ff16016108c65760405163769dd35360e11b815260040160405180910390fd5b6003805461ff00191661020017905560008290036108f757604051632ef1310560e01b815260040160405180910390fd5b60008383604051610909929190611152565b604080519182900390912060008181526002602052919091205490915060ff161561094757604051638c2bd5a760e01b815260040160405180910390fd5b6000818152600260209081526040808320805460ff1916600117905580516060601f8801849004909302810183018252908101868152909182919088908890819085018382808284376000920182905250938552505050602091820181905283546001810185559381522081519192600202019081906109c790826111b1565b50602091909101516001918201556000546109e29190611270565b7fe83b2a43e7e82d975c8a0a6d2f045153c869e111136a34d1889ab7b598e396a38585604051610a13929190611291565b60405180910390a250506003805461ff0019166101001790555050565b336001600160a01b037f00000000000000000000000000000000000000000000000000000000000000001614610a78576040516282b42960e81b815260040160405180910390fd5b60018060035460ff166002811115610a9257610a92611038565b14610b3c57600060035460ff166002811115610ab057610ab0611038565b03610ace576040516345c7662360e11b815260040160405180910390fd5b600160035460ff166002811115610ae757610ae7611038565b03610b0557604051631182db3560e01b815260040160405180910390fd5b600260035460ff166002811115610b1e57610b1e611038565b03610b3c5760405163702b793360e01b815260040160405180910390fd5b60035460011961010090910460ff1601610b695760405163769dd35360e11b815260040160405180910390fd5b6003805461020261ffff1982161790915560ff16610b85610d3b565b6003546040517f34359fa46e093fd12cfbc62b69fefa4a903105d7c42458bbef6760d3864a71ff91610bbc91849160ff1690611137565b60405180910390a17f56de90a7aa1a8c2797dcc1ced97cfca783aaa7f07ac36487483b41492a3eb49d6004600554604051610bf89291906112c0565b60405180910390a150506003805461ff001916610100179055565b6060600060028060035460ff166002811115610c3157610c31611038565b14610cdb57600060035460ff166002811115610c4f57610c4f611038565b03610c6d576040516345c7662360e11b815260040160405180910390fd5b600160035460ff166002811115610c8657610c86611038565b03610ca457604051631182db3560e01b815260040160405180910390fd5b600260035460ff166002811115610cbd57610cbd611038565b03610cdb5760405163702b793360e01b815260040160405180910390fd5b600460055481805480602002602001604051908101604052809291908181526020018280548015610d2b57602002820191906000526020600020905b815481526020019060010190808311610d17575b5050505050915092509250509091565b6000805490819003610d6057604051633941064160e21b815260040160405180910390fd5b60008060005b83811015610db6576000808281548110610d8257610d826110d1565b906000526020600020906002020160010154905083811115610da2578093505b8015610dad57600192505b50600101610d66565b5080610dd55760405163354ba2d560e01b815260040160405180910390fd5b6005829055610de660046000610e60565b60005b83811015610e5a578260008281548110610e0557610e056110d1565b90600052602060002090600202016001015403610e5257600480546001810182556000919091527f8a35acfbc15ff81a39ae7d344fd709f28e8600b4aa8c65c6b64bfe7fe36bd19b018190555b600101610de9565b50505050565b5080546000825590600052602060002090810190610e7e9190610e81565b50565b5b80821115610e965760008155600101610e82565b5090565b600060208284031215610eac57600080fd5b5035919050565b6000815180845260005b81811015610ed957602081850181015186830182015201610ebd565b506000602082860101526020601f19601f83011685010191505092915050565b6000602082016020835280845180835260408501915060408160051b86010192506020860160005b82811015610f6657603f198786030184528151805160408752610f476040880182610eb3565b6020928301519783019790975250938401939190910190600101610f21565b50929695505050505050565b600060208284031215610f8457600080fd5b81356001600160a01b0381168114610f9b57600080fd5b9392505050565b604081526000610fb56040830185610eb3565b90508260208301529392505050565b60008060208385031215610fd757600080fd5b823567ffffffffffffffff811115610fee57600080fd5b8301601f81018513610fff57600080fd5b803567ffffffffffffffff81111561101657600080fd5b85602082840101111561102857600080fd5b6020919091019590945092505050565b634e487b7160e01b600052602160045260246000fd5b6003811061106c57634e487b7160e01b600052602160045260246000fd5b9052565b6020810161107e828461104e565b92915050565b6040808252835190820181905260009060208501906060840190835b818110156110be5783518352602093840193909201916001016110a0565b5050602093909301939093525092915050565b634e487b7160e01b600052603260045260246000fd5b634e487b7160e01b600052604160045260246000fd5b600181811c9082168061111157607f821691505b60208210810361113157634e487b7160e01b600052602260045260246000fd5b50919050565b60408101611145828561104e565b610f9b602083018461104e565b8183823760009101908152919050565b601f8211156111ac57806000526020600020601f840160051c810160208510156111895750805b601f840160051c820191505b818110156111a95760008155600101611195565b50505b505050565b815167ffffffffffffffff8111156111cb576111cb6110e7565b6111df816111d984546110fd565b84611162565b6020601f82116001811461121357600083156111fb5750848201515b600019600385901b1c1916600184901b1784556111a9565b600084815260208120601f198516915b828110156112435787850151825560209485019460019092019101611223565b50848210156112615786840151600019600387901b60f8161c191681555b50505050600190811b01905550565b8181038181111561107e57634e487b7160e01b600052601160045260246000fd5b60208152816020820152818360408301376000818301604090810191909152601f909201601f19160101919050565b6040808252835490820181905260008481526020812090916060840190835b818110156110be5783548352600193840193602090930192016112df56fea2646970667358221220d3662ccbe4096d7c4cd318742d9371e1a54f718218831306f6eb4eb7bb324d8764736f6c634300081c0033",
  "linkReferences": {},
  "deployedLinkReferences": {}
}